{
  "_format": "hh-sol-artifact-1",
  "contractName": "TokenizedBallot",
  "sourceName": "contracts/TokenizedBallot.sol",
  "abi": [
    {
      "inputs": [
        {
          "internalType": "bytes32[]",
          "name": "_proposalNames",
          "type": "bytes32[]"
        },
        {
          "internalType": "address",
          "name": "_tokenContract",
          "type": "address"
        },
        {
          "internalType": "uint256",
          "name": "_targetBlockNumber",
          "type": "uint256"
        }
      ],
      "stateMutability": "nonpayable",
      "type": "constructor"
    },
    {
      "inputs": [
        {
          "internalType": "uint256",
          "name": "",
          "type": "uint256"
        }
      ],
      "name": "proposals",
      "outputs": [
        {
          "internalType": "bytes32",
          "name": "name",
          "type": "bytes32"
        },
        {
          "internalType": "uint256",
          "name": "voteCount",
          "type": "uint256"
        }
      ],
      "stateMutability": "view",
      "type": "function"
    },
    {
      "inputs": [],
      "name": "targetBlockNumber",
      "outputs": [
        {
          "internalType": "uint256",
          "name": "",
          "type": "uint256"
        }
      ],
      "stateMutability": "view",
      "type": "function"
    },
    {
      "inputs": [],
      "name": "tokenContract",
      "outputs": [
        {
          "internalType": "contract IMyToken",
          "name": "",
          "type": "address"
        }
      ],
      "stateMutability": "view",
      "type": "function"
    },
    {
      "inputs": [
        {
          "internalType": "uint256",
          "name": "proposal",
          "type": "uint256"
        },
        {
          "internalType": "uint256",
          "name": "amount",
          "type": "uint256"
        }
      ],
      "name": "vote",
      "outputs": [],
      "stateMutability": "nonpayable",
      "type": "function"
    },
    {
      "inputs": [
        {
          "internalType": "address",
          "name": "",
          "type": "address"
        }
      ],
      "name": "votePowerSpent",
      "outputs": [
        {
          "internalType": "uint256",
          "name": "",
          "type": "uint256"
        }
      ],
      "stateMutability": "view",
      "type": "function"
    },
    {
      "inputs": [],
      "name": "winnerName",
      "outputs": [
        {
          "internalType": "bytes32",
          "name": "winnerName_",
          "type": "bytes32"
        }
      ],
      "stateMutability": "view",
      "type": "function"
    },
    {
      "inputs": [],
      "name": "winningProposal",
      "outputs": [
        {
          "internalType": "uint256",
          "name": "winningProposal_",
          "type": "uint256"
        }
      ],
      "stateMutability": "view",
      "type": "function"
    }
  ],
  "bytecode": "0x60806040523480156200001157600080fd5b5060405162000e3438038062000e348339818101604052810190620000379190620003c3565b816000806101000a81548173ffffffffffffffffffffffffffffffffffffffff021916908373ffffffffffffffffffffffffffffffffffffffff16021790555080600281905550436002541115620000c6576040517f08c379a0000000000000000000000000000000000000000000000000000000008152600401620000bd90620004eb565b60405180910390fd5b60005b8351811015620001555760016040518060400160405280868481518110620000f657620000f56200050d565b5b6020026020010151815260200160008152509080600181540180825580915050600190039060005260206000209060020201600090919091909150600082015181600001556020820151816001015550508080600101915050620000c9565b505050506200053c565b6000604051905090565b600080fd5b600080fd5b600080fd5b6000601f19601f8301169050919050565b7f4e487b7100000000000000000000000000000000000000000000000000000000600052604160045260246000fd5b620001c38262000178565b810181811067ffffffffffffffff82111715620001e557620001e462000189565b5b80604052505050565b6000620001fa6200015f565b9050620002088282620001b8565b919050565b600067ffffffffffffffff8211156200022b576200022a62000189565b5b602082029050602081019050919050565b600080fd5b6000819050919050565b620002568162000241565b81146200026257600080fd5b50565b60008151905062000276816200024b565b92915050565b6000620002936200028d846200020d565b620001ee565b90508083825260208201905060208402830185811115620002b957620002b86200023c565b5b835b81811015620002e65780620002d1888262000265565b845260208401935050602081019050620002bb565b5050509392505050565b600082601f83011262000308576200030762000173565b5b81516200031a8482602086016200027c565b91505092915050565b600073ffffffffffffffffffffffffffffffffffffffff82169050919050565b6000620003508262000323565b9050919050565b620003628162000343565b81146200036e57600080fd5b50565b600081519050620003828162000357565b92915050565b6000819050919050565b6200039d8162000388565b8114620003a957600080fd5b50565b600081519050620003bd8162000392565b92915050565b600080600060608486031215620003df57620003de62000169565b5b600084015167ffffffffffffffff8111156200040057620003ff6200016e565b5b6200040e86828701620002f0565b9350506020620004218682870162000371565b92505060406200043486828701620003ac565b9150509250925092565b600082825260208201905092915050565b7f476976656e20626c6f636b206e756d626572206d757374206265206c6573732060008201527f7468616e206f7220657175616c20746f207468652063757272656e7420626c6f60208201527f636b206e756d6265720000000000000000000000000000000000000000000000604082015250565b6000620004d36049836200043e565b9150620004e0826200044f565b606082019050919050565b600060208201905081810360008301526200050681620004c4565b9050919050565b7f4e487b7100000000000000000000000000000000000000000000000000000000600052603260045260246000fd5b6108e8806200054c6000396000f3fe608060405234801561001057600080fd5b506004361061007d5760003560e01c8063609ff1bd1161005b578063609ff1bd146100ef5780639e90d0d91461010d578063b384abef1461013d578063e2ba53f0146101595761007d565b8063013cf08b146100825780632a8cd29e146100b357806355a373d6146100d1575b600080fd5b61009c600480360381019061009791906104d6565b610177565b6040516100aa92919061052b565b60405180910390f35b6100bb6101ab565b6040516100c89190610554565b60405180910390f35b6100d96101b1565b6040516100e691906105ee565b60405180910390f35b6100f76101d5565b6040516101049190610554565b60405180910390f35b61012760048036038101906101229190610647565b610257565b6040516101349190610554565b60405180910390f35b61015760048036038101906101529190610674565b61026f565b005b610161610467565b60405161016e91906106b4565b60405180910390f35b6001818154811061018757600080fd5b90600052602060002090600202016000915090508060000154908060010154905082565b60025481565b60008054906101000a900473ffffffffffffffffffffffffffffffffffffffff1681565b6000806000905060005b600180549050811015610252578160018281548110610201576102006106cf565b5b9060005260206000209060020201600101541115610245576001818154811061022d5761022c6106cf565b5b90600052602060002090600202016001015491508092505b80806001019150506101df565b505090565b60036020528060005260406000206000915090505481565b80600360003373ffffffffffffffffffffffffffffffffffffffff1673ffffffffffffffffffffffffffffffffffffffff1681526020019081526020016000205460008054906101000a900473ffffffffffffffffffffffffffffffffffffffff1673ffffffffffffffffffffffffffffffffffffffff16633a46b1a8336002546040518363ffffffff1660e01b815260040161030d92919061070d565b602060405180830381865afa15801561032a573d6000803e3d6000fd5b505050506040513d601f19601f8201168201806040525081019061034e919061074b565b61035891906107a7565b1015610399576040517f08c379a00000000000000000000000000000000000000000000000000000000081526004016103909061085e565b60405180910390fd5b80600360003373ffffffffffffffffffffffffffffffffffffffff1673ffffffffffffffffffffffffffffffffffffffff168152602001908152602001600020546103e4919061087e565b600360003373ffffffffffffffffffffffffffffffffffffffff1673ffffffffffffffffffffffffffffffffffffffff16815260200190815260200160002081905550806001838154811061043c5761043b6106cf565b5b9060005260206000209060020201600101600082825461045c919061087e565b925050819055505050565b600060016104736101d5565b81548110610484576104836106cf565b5b906000526020600020906002020160000154905090565b600080fd5b6000819050919050565b6104b3816104a0565b81146104be57600080fd5b50565b6000813590506104d0816104aa565b92915050565b6000602082840312156104ec576104eb61049b565b5b60006104fa848285016104c1565b91505092915050565b6000819050919050565b61051681610503565b82525050565b610525816104a0565b82525050565b6000604082019050610540600083018561050d565b61054d602083018461051c565b9392505050565b6000602082019050610569600083018461051c565b92915050565b600073ffffffffffffffffffffffffffffffffffffffff82169050919050565b6000819050919050565b60006105b46105af6105aa8461056f565b61058f565b61056f565b9050919050565b60006105c682610599565b9050919050565b60006105d8826105bb565b9050919050565b6105e8816105cd565b82525050565b600060208201905061060360008301846105df565b92915050565b60006106148261056f565b9050919050565b61062481610609565b811461062f57600080fd5b50565b6000813590506106418161061b565b92915050565b60006020828403121561065d5761065c61049b565b5b600061066b84828501610632565b91505092915050565b6000806040838503121561068b5761068a61049b565b5b6000610699858286016104c1565b92505060206106aa858286016104c1565b9150509250929050565b60006020820190506106c9600083018461050d565b92915050565b7f4e487b7100000000000000000000000000000000000000000000000000000000600052603260045260246000fd5b61070781610609565b82525050565b600060408201905061072260008301856106fe565b61072f602083018461051c565b9392505050565b600081519050610745816104aa565b92915050565b6000602082840312156107615761076061049b565b5b600061076f84828501610736565b91505092915050565b7f4e487b7100000000000000000000000000000000000000000000000000000000600052601160045260246000fd5b60006107b2826104a0565b91506107bd836104a0565b92508282039050818111156107d5576107d4610778565b5b92915050565b600082825260208201905092915050565b7f6e6f7420656e6f75676820766f74696e6720706f77657220746f20766f74652060008201527f7468697320616d6f756e74000000000000000000000000000000000000000000602082015250565b6000610848602b836107db565b9150610853826107ec565b604082019050919050565b600060208201905081810360008301526108778161083b565b9050919050565b6000610889826104a0565b9150610894836104a0565b92508282019050808211156108ac576108ab610778565b5b9291505056fea26469706673582212206bb9b2b762f0c38b245f27e856fe938293480979f70c4e1230aedce206a4283164736f6c63430008180033",
  "linkReferences": {},
  "deployedLinkReferences": {}
}